:10000000000003205107000035070000ED06000046
:10001000ED060000ED060000ED060000ED06000014
:10002000ED060000ED060000ED06000035070000BB
:1000300035070000ED0600004D280000C52A00002D
:1000400035070000350700003507000035070000C0
:1000500035070000350700003507000035070000B0
:1000600035070000350700003507000035070000A0
:100070003507000035070000350700003507000090
:100080003507000035070000350700003507000080
:100090003507000035070000350700003507000070
:1000A0003507000035070000350700003507000060
:1000B000350700003507000035070000DD2C000083
:1000C00035070000392E000035070000952F00008D
:1000D00035070000C5300000350700003507000077
:1000E0003507000035070000350700003507000020
:1000F0003507000035070000350700003507000010
:1001000035070000350700003507000035070000FF
:1001100035070000A5140000350700003507000072
:1001200035070000350700003507000035070000DF
:1001300035070000350700003507000035070000CF
:100140003507000035070000F531000035070000D5
:1001500035070000350700003507000035070000AF
:10016000350700003507000035070000350700009F
:10017000350700003507000035070000350700008F
:10018000350700003507000035070000350700007F
:100190003507000035070000253300003507000053
:1001A000350700003507000035070000350700005F
:1001B000350700003507000035070000350700004F
:1001C000350700003507000035070000350700003F
:1001D000FFFFFFFFFFFFFFFFFFFFFFFFFFFFFFFF2F
:10040000FFFFFFFFFFFFFFFFFFFFFFFFDEF9FFFF23
:1004100010B5054C237833B9044B13B10448AFF33E
:1004200000800123237010BD0417FF1F000000008F
:10043000184A0000084B10B51BB108490848AFF333
:1004400000800848036803B910BD074B002BFBD0A0
:10045000BDE81040184700BF000000000817FF1F4C
:10046000184A00000417FF1F00000000704700BF7B
:1004700038B540F60C64C1F6FF7444F27865C0F2FA
:100480000005204600F018F93D21284601F0A8FF9C
:10049000204600F011F944F2B8603D21C0F200009E
:1004A00001F09EFF204600F007F944F2F8603E217B
:1004B000C0F2000001F094FF204600F0FDF828464D
:1004C0003D2101F08DFF204600F0F6F84FF47A70E0
:1004D000BDE8384000F0A4BE2DE9F04144F26F645D
:1004E00000211020C0F2000444F2377500F05CFED9
:1004F000C0F200050021112004F1080600F054FEAE
:1005000014F8010F012100F04FFE012115F8010F31
:1005100000F04AFEA642F3D144F23D76C0F2000656
:100520004FF003083746002544F23874C0F2000447
:1005300014F8010B294600F081FCA642F8D12946A7
:10054000152000F07BFC0135012000F069FEFF2D35
:10055000EAD144F23874C0F2000414F8010B2946C1
:1005600000F06CFCBC42F8D12946152000F066FC76
:10057000022000F055FE013DEBD108F1FF3818F0E4
:10058000FF08D0D14FF2C003C4F20F03C3F80080BC
:10059000BDE8F041FFF76CBF2DE9804841F22474BB
:1005A00041F24079C1F6FF74C1F6FF7985B0274664
:1005B000CA464FF0000841F22470C1F6FF7004F003
:1005C00010FAA368422B38D00FD9442B3FD0582BB8
:1005D0003AD16223022101A88DF805808DF80430FC
:1005E00001F0FEFEC7F80880E5E76BBBD9F80020F4
:1005F0000292029AB969521A312ADCD9DAF800203B
:1006000003923A7D0399B961C72A27D87B7D5BB3F2
:10061000561CF6B23E7544F23875C0F2000505F17D
:10062000050B15F8010B314600F008FC5D45F8D1CB
:100630003146152000F002FCBDE741F22470C1F6FE
:10064000FF7004F0D3F9B6E7C4F80880B3E741F2CD
:100650002470C1F6FF7004F0BFF9ACE7C82A09D0D6
:10066000561EF6B22675D6E7002AF9D101267E7508
:100670003E75D0E7C7267B753E75CCE770B441F276
:100680002473C1F6FF7300240125C82640F60062DA
:1006900040F26D415D751C715C711C751E609C6043
:1006A000DC601C619C611846C1F6FF72C0F200015B
:1006B00070BC02F037BF00BF00B544F24073C0F217
:1006C000000383B002681B88ADF8043001A95368A9
:1006D0000222984703B05DF804FB00BF08B5FFF79E
:1006E000FBFEFFF759FF01F0F3FFFAE748F234048D
:1006F00008B5C4F2040408E0236859050DD4236842
:100700001A050FD42368DB0411D423685803F3D5EA
:1007100000F0C8FE23685905F1D502F0DFFA23681E
:100720001A05EFD502F088FB2368DB04EDD502F053
:1007300031FCEAE708B5FFF7D9FF00BF4FF40053DB
:10074000C4F2050310221A80704700BF704700BF33
:1007500042F20E03C4F205034CF2205210B51A8087
:100760004DF628121A8000BF00BFFFF7E7FF48F2DE
:100770003003C4F204034FF030621A6048F23803C9
:10078000C4F2040343F68272C0F204021A6048F213
:100790003C03C4F204030122C2F600321A604EF692
:1007A0008853CEF200034FF470021A604FF40053E6
:1007B000CEF208030322C8F200521A604DF202037F
:1007C000C4F207031A78110703D51A7842F0080219
:1007D0001A704FF46043C4F20703AA221A7044F659
:1007E0001C2140F2307341F20472C0F20001C1F6E4
:1007F000FF73C1F6FF72934204D251F8040F43F81D
:10080000040BF8E741F2047341F6AC32C1F6FF7312
:10081000C1F6FF720021934202D243F8041BFAE7AB
:1008200040F2002040F200010023C1F6FF70C0F248
:10083000000151F8232040F82320013340F2002228
:10084000742BC1F6FF72F4D14FF464434EF264414D
:10085000CEF200038020CEF2000103F8010B8B42A0
:10086000FBD14EF60853CEF200031A604FF4A043BA
:10087000C4F206038A221A704FF48043C4F20603BE
:1008800024225A70A0221A709A799207FCD59A797C
:10089000D406FCD44FF48042C4F20602937903F0EC
:1008A0000C03082BFAD14EF20103C4F207036022B5
:1008B0001A704EF20303C4F207031A78802AFCD19F
:1008C0004FF48043C4F2060300221A714E225A717B
:1008D0009A799006FCD59A795106FCD548F24402E3
:1008E000C4F204020021C0F20731116048F248024C
:1008F000C4F204020821116020221A704FF48042D1
:10090000C4F20602937903F00C030C2BFAD148F2DF
:100910000403C4F204034FF48652C0F205021A60C5
:100920004DF21002C4F203024DF21404136813F4E2
:100930008073C4F2030403D123604FF4A8531360FF
:100940004EF21403CEF200034AF67F12C0F2030205
:100950001A604EF21803CEF2000300221A604EF223
:100960001003CEF2000307221A604EF62053CEF297
:1009700000030022C2F220021A6062B600F0C4F83E
:100980002368DA070ED545F27B30C5F6DA6000F051
:10099000A5F84EF21C03C4F203034CF2A532C5F6CF
:1009A00094221A604FF47043C4F207031B785B066D
:1009B00012D54EF21C04C4F203044CF2A533226893
:1009C000C5F694239A4207D145F27B30C5F6DA602A
:1009D00000F084F80023236003F0A0F9FFF7B6FECF
:1009E000FFF77CFEFEE700BF08B540F60463C1F6E2
:1009F000FF731A6830B169461044A1F5005188426E
:100A000002D21860104608BD03F082F90C2303607F
:100A10004FF0FF3008BD00BF4EF20302C4F20702E0
:100A20001378802B01D00020704748F244014EF229
:100A30000103C4F204010020C4F2070310B4C1F2A0
:100A40001730002408601C701378802BFCD0012024
:100A50005DF8044B704700BF4EF20302C4F2070278
:100A60001378012B01D0002070474EF20103C4F22D
:100A70000703602119701378802BFCD148F24403DE
:100A8000C4F204030022C0F207321A60012070474A
:100A9000F0B44D1E2E46002400E00134B0FBF2F30A
:100AA00002FB1300092800F130078ABF3730F8B283
:100AB000C0B206F8010F1846002BEED10A19537088
:100AC0004CB1107815F8016F28700133E01A834299
:100AD00002F80169F5DB0846F0BC704730B44DF20E
:100AE00014034DF204014FF45042C4F20303C4F264
:100AF0000301C4F20302002410251C600C60106086
:100B00001D6030BC704700BF2DE9F8434EF204135E
:100B1000CEF200034FF000621A604FF080521A606C
:100B20004FF000521A6048F204004FF080421A6001
:100B3000C4F203004FF0004248F2080C48F20C07E0
:100B40001A60C4F2030C0022C4F2030702602823D7
:100B50004EF6FF7048F2140648F21C0548F22404D1
:100B600048F22C0E48F23401CCF80000C4F203061F
:100B70003B60C4F20305C4F20304C4F2030EC4F2E2
:100B8000030148F23C07C4F20307336049F21C0C2E
:100B90002B6048F24406236049F20C05CEF8003081
:100BA00049F214040B6049F224013B60C4F20B05C6
:100BB000C4F20B04C4F20B0CC4F20306C4F20B0122
:100BC00049F22C07C4F20B07336049F23C0E2B604C
:100BD00049F234062360CCF800300B6049F244013E
:100BE0003B60C4F20B06C4F20B0EC4F20B014FF4CF
:100BF0000047C4F203073360CEF8003049F2040620
:100C00000B6009213960C4F2030649F2080E49F26B
:100C10000C07C4F2030EC4F20307326049F2140653
:100C2000CEF80000C4F203063B604FF4104E48F2C9
:100C30000407C4F2030EC4F20B07336048F208063F
:100C4000CEF80010C4F20B063A6048F20C0E48F2DF
:100C50001407C4F20B0EC4F20B0730604FF40046C9
:100C6000CEF80030C4F20B063B6049F2040E49F2A4
:100C70000807C4F20B0EC4F20B0731604FF41046A4
:100C8000CEF80020C4F20B06386048F22C00C4F203
:100C900004002B6023603160046848F20401C4F250
:100CA000040144F400740460086849F2040EC4F2BC
:100CB0000C0E49F2080749F20C0649F214054FF4EC
:100CC000104440F00070C4F20C07C4F20C06C4F2E9
:100CD0000C05C4F20C040860CEF8002047F6FF7142
:100CE0000822396033602B60226001F001FF72B688
:100CF0004EF2180341F240754EF60452C1F6FF75EC
:100D0000CEF20003CEF200021B682C68126862B6B5
:100D1000510102D5322B88BF0134C3F56A3348F63E
:100D2000890703F27F13C8F688074FF47A72A7FB8E
:100D3000031302FB04F44EF218094EF6045804EBB8
:100D4000D314CEF20009CEF20008192672B6D9F8F3
:100D500000102A68D8F800E062B6C1F56A3303F2E1
:100D60007F13A7FB03031EF0806FC4EBD3134FF474
:100D70007A7002D0322988BF013200FB0233B3F50A
:100D80007A7F04D3013E05D004F57A74DEE701F0E2
:100D90009FFCDBE701F0C6F972B64EF218034EF67F
:100DA0000452CEF20003CEF200021B682C681268D7
:100DB00062B6520102D5322B88BF0134C3F56A33C3
:100DC00048F6890703F27F13C8F688074FF47A7252
:100DD000A7FB031302FB04F44EF218094EF6045865
:100DE00004EBD314CEF20009CEF2000840F2131641
:100DF00072B6D9F800102A68D8F800E062B6C1F5DA
:100E00006A3303F27F13A7FB03031EF0806FC4EB6A
:100E1000D3134FF47A7002D0322988BF013200FB1D
:100E20000233B3F57A7F04D3013E05D004F57A741A
:100E3000DEE701F04DFCDBE7BDE8F883A0F14203FB
:100E4000012B32D9002940F39B8010B440F608638F
:100E5000C1F6FF7301221B7802FA03F48C4204D816
:100E60003F2837D95DF8044B7047C21E012A4ED97E
:100E7000A0F11D02012A40F2D4800E2871D9A0F100
:100E80002302032A72D9A0F11002012A95BF49F268
:100E9000080248F20802C4F20C02C4F2030212680B
:100EA00002FB011222FA03F33AE040F60863C1F6AE
:100EB000FF731B780B2B09D90C2B1CBF0C3B194162
:100EC0004228084600F0958001F0D2BEC3F10C0321
:100ED0009940F5E744F24473C0F2000353F8301030
:100EE00091F8804203EBC000002C40F0A4804368DE
:100EF0001A6842F003021A604FF4A272012081F8CE
:100F000080021A601A6822F020021A60AAE749F2E9
:100F10000802C4F20302126802FB011222FA03F370
:100F2000102800F0EA804AD8062800F0F38040F24A
:100F30009A80092800F0928000F2A180072800F032
:100F4000C080082840F0FA8049F228014CF20C02D7
:100F5000C4F20B01C4F2040240F244400B60106082
:100F600080E744F28412C240D20788D549F20802D1
:100F7000C4F20B02126802FB011222FA03F3CFE75C
:100F80003F283FF671AF44F24473C0F2000353F8B8
:100F9000302092F8801203EBC00000294FD1436843
:100FA000196821F00201196001204FF4A27182F842
:100FB000800219601A6822F020021A6070471D280A
:100FC00000F0B78017D815283ED061D8112800F05E
:100FD000A680142840F0B28048F238014CF2140286
:100FE000C4F20301C4F2040240F244400B601060FA
:100FF00038E701F019BE24282BD052D81E2800F063
:10100000BF80232840F09A8049F230014BF2200241
:10101000C4F20B01C4F204024FF451700B60106073
:1010200020E748F20802C4F20B02126802FB011228
:1010300022FA03F374E781F8802043685CE701211A
:10104000436882F80011AFE748F240014CF2180201
:10105000C6E749F238014BF22402D9E748F22001F1
:101060004BF20C02BCE703283DD023D904282DD035
:10107000052863D148F248014CF21C02B0E70A2867
:1010800052D00E285AD149F218014CF204025FE7FF
:1010900016287AD0172851D148F218014BF20802CD
:1010A0009EE7252824D0262848D149F248014BF252
:1010B0002C02ADE7022841D149F210014FF4404221
:1010C00046E749F220014CF2080241E749F21801D3
:1010D00049F23402C4F20301C4F204024FF4517025
:1010E0000B601060BEE649F2100149F23002F1E7F0
:1010F00049F240014BF228028AE749F210014FF40D
:101100002042C4F20C01C4F2040240F244600B60BD
:101110001060A7E648F230014CF2100260E749F295
:1011200018014AF20402ECE748F228014BF21002DF
:1011300056E748F210014AF2480269E73F283FF6B5
:1011400091AE44F24473C0F2000353F8302092F899
:10115000804203EBC003ECB17F295B684FF00101D3
:10116000CCBF82F8801082F8001101204FF4A271E8
:1011700082F8800219601A6822F020021A6071E673
:1011800048F218014AF24C0242E748F210014BF2D1
:10119000040225E75B687F291968CCBF41F0030191
:1011A00021F002011960E0E73F2823D844F244739C
:1011B000C0F2000303EBC002012952680FD00429DA
:1011C0001DD053F83000002380F8803299B10229F5
:1011D00022D003290DD14FF481731360704753F867
:1011E00030004FF4A27380F880121360136823F06C
:1011F0002003136070474FF480731360704753F8F7
:1012000030104FF4A273012081F88002136013683C
:1012100043F020031360704740F2031313607047DC
:101220002DE9F843054672B64EF2180341F24076B6
:101230004EF60452C1F6FF76CEF20003CEF2000263
:101240001B683468126862B6520102D5322B88BF1F
:101250000134DDB3C3F56A3348F6890703F27F131F
:10126000C8F688074FF47A72A7FB031302FB04F455
:101270004EF218094EF6045804EBD314CEF20009CE
:10128000CEF2000872B6D9F800103268D8F800E043
:1012900062B6C1F56A3303F27F13A7FB03031EF0A6
:1012A000806FC4EBD3134FF47A7002D0322988BF19
:1012B000013200FB0233B3F57A7F04D3013D05D040
:1012C00004F57A74DEE701F003FADBE7BDE8F883A2
:1012D000431E032B1AD872B641F29C72C1F6FF72FC
:1012E00052F8230080B141F69431C1F6FF7170B419
:1012F000058831F81340466842F82360621B21F8E4
:10130000132062B670BC704762B670470020704709
:10131000013803280ED872B641F2F073C1F6FF739C
:1013200053F8203043B100205B680130002BFBD123
:1013300062B67047002070471846F9E770B472B67D
:1013400044F66C12C0F2000213781D0709D540F272
:101350000003C1F6FF73196A002951D0996A002968
:1013600050D053781C0709D540F20003C1F6FF7333
:10137000196C00294AD0996C002945D09378190737
:1013800007D540F20003C1F6FF73196E71B3996E71
:10139000C1B1D3781B070BD540F20003C1F6FF7330
:1013A0001024D3F8802012B3D3F88820112452B12E
:1013B00062B641F61903C1F6FF7300221A7070BCC1
:1013C00000F074BF0D2441F61902C1F6FF7203EB61
:1013D000C4061178C82508300139C0F24005706094
:1013E000117043F8345062B670BC70470C2441F65B
:1013F0001902C1F6FF7203EBC40611788825EAE7EB
:101400000424F4E70524DEE70924DCE70824EEE7FA
:10141000431E032B27D8400140F20002C1F6FF72A1
:1014200040F0100030B4104472B641F62802C1F604
:10143000FF72D45C012C27D02BD3022C27D0032C95
:1014400012D041F2F070C1F6FF7050F8232012B3B1
:1014500041F60002C1F6FF7252F82300416042F8E3
:10146000231062B630BC7047083004250C88D55470
:1014700010F0080F14BFC823882343EA044308313F
:101480000360416062B6EDE708300225EEE705250E
:10149000ECE70325EAE741F6000240F82310C1F625
:1014A000FF72DCE72DE9F04F42F294038BB042F279
:1014B00098024FF4035142F2C4004FF4025B42F22F
:1014C0009009C4F20703C4F20702C4F20701C4F290
:1014D0000700C4F2070BC4F20709019306920791B3
:1014E000089051E040F200059E08C1F6FF7505EB3B
:1014F000C607441E7A6803F00803E4B2A2F10800AC
:1015000003F0FF0E002B40F0A98055F836301B0C7D
:1015100099B222F8081C002B00F0938041F29C7CC9
:10152000C1F6FF7C22F806EC5CF8243042F804ECAB
:1015300041F24878002B00F08981C1F6FF7858F815
:101540002420506041F6943AC1F6FF7A48F824000E
:101550003AF8143019442AF8141000F083FE0028D9
:1015600000F06A81C822882317F0080FC0F24002F9
:10157000C0F2400300F1080018BF1346786045F838
:10158000363008238BF800309BF80040E4B2630744
:1015900024D541F62403C1F6FF731B78DBB141F279
:1015A000AD73C1F6FF73197801F0FF0229B1013A5A
:1015B000D2B21A70002A00F0A18541F62C03C1F6C0
:1015C000FF73197801F0FF0229B1013AD2B21A7003
:1015D000002A00F02E8104238BF8003004F0080369
:1015E00003F0FF02002B00F0048199F80030DBB219
:1015F00018097FF477AF40F200049A08C1F6FF742F
:1016000004EBC20154F832304968C3F38303092B59
:1016100000F0A68053D8013B012B0ED841F61003F1
:10162000C1F6FF7342F221001D88854200F0CF828F
:10163000C823C0F2400344F83230019A01231370EA
:101640009FE7C822882317F0080FC0F24002C0F2BB
:10165000400318BF134645F8363092E700F026FEE7
:1016600041F2F072C1F6FF7252F82410002900F026
:101670009E8241F62800C1F6FF704B6810F804E026
:1016800042F82430BEF1010F01F108037B6000F045
:10169000E880C0F0E380BEF1020F00F0DC80BEF114
:1016A000030F01D10423035517F0080F0A880CBF5C
:1016B0008823C82343EA024345F8363061E70D2BFF
:1016C000BBD1D1F800E0496841F61007C823C1F644
:1016D000FF77C0F2400341F2447641F2AC7544F822
:1016E0003230C1F6FF76C1F6FF751FFA8EF340F275
:1016F0008162796093424FF001012061A061C7F8D7
:1017000000E03060297000F2AF80B3F5D06F80F058
:10171000DB83B3F5817F00F0C08300F28D82802BE4
:1017200000F02C83822B40F07283BB8803F07F0390
:10173000042B00F26C834FF4035141F61C029B0012
:10174000C1F6FF72C4F207011944002313705370ED
:101750000B789B0740F1D38301231370022115E31B
:1017600041F24476C1F6FF7632689AB341F2587E70
:10177000C1F6FF7E41F2AC7541F61803C1F6FF7564
:10178000C1F6FF73BEF800102F78187840298C46F8
:1017900040F0020828BF4FF0400C002F87F00107EF
:1017A0002F70CCEB01010CBF8825C82504EBC807BE
:1017B00089B280F0010045EA0C457A60AEF800106D
:1017C00044F838506244187019B9BCF1400F18BF82
:1017D0000022326041F61003C1F6FF731A88B2F599
:1017E000A06F7FF42AAF00219A785970069B1A7077
:1017F00023E7E00700F15F82210600F1AD82A20736
:101800000CD542F28803C4F207034FF402511A7850
:10181000C4F20701D2B202201A700870E30605D59F
:101820004FF40253C4F2070310221A700BB0BDE844
:10183000F08F00F025FFCEE641F61903C1F6FF73E5
:1018400045F836001A7801321A709AE64CF82400EE
:10185000C1F6FF7876E60523035525E703230355F4
:1018600022E7022303551FE742F22102934200F0D0
:101870009A8100F20282B3F5086F00F0AA82B3F5F4
:10188000106F40F0C48241F62402C1F6FF72236A51
:10189000B97811701F0640F20002C1F6FF7200F124
:1018A000D383A26A40F200031006C1F6FF7300F171
:1018B000C683226B40F200031106C1F6FF7300F1EC
:1018C000B983A26B40F200031206C1F6FF7300F168
:1018D000AC83226C40F200031706C1F6FF7300F1DF
:1018E0009F83A26C40F200031006C1F6FF7300F163
:1018F0009283226D40F200031106C1F6FF7300F1DE
:101900008583A26D40F200031206C1F6FF7300F159
:101910007883226E40F200031706C1F6FF7300F1D0
:10192000A783A26E40F200031006C1F6FF7300F118
:101930009A83226F40F200031106C1F6FF7300F193
:101940008D83A26F40F200031206C1F6FF7300F10F
:101950008083D4F8802040F200031706C1F6FF739D
:1019600000F19183D4F8882040F200031006C1F6FC
:10197000FF7300F18283D4F8902040F20003110637
:10198000C1F6FF7300F13783D4F8982040F20003CA
:101990001206C1F6FF7300F1288341F29C7341F2F5
:1019A000F07241F6000141F6280041F2487841F614
:1019B000943AC1F6FF73C1F6FF72C1F6FF71C1F62A
:1019C000FF70039402960495CDF814B0C1F6FF7829
:1019D000C1F6FF7A074600241E4615468B46CDF811
:1019E00024903068A14630B1446800F05FFC204686
:1019F000002CF9D14C4628680023336048F8243085
:101A0000A14630B1446800F051FC2046002CF9D1C9
:101A10004C463B780022032B2A604BF8042B2AF813
:101A2000142006D040F21482042B00F01482052BFF
:101A300002D14FF001033B700134042C06F104067F
:101A400005F1040507F10107CBD144F66C1741F607
:101A50001908C0F20007C1F6FF7800223B7888F829
:101A60000020089A039C029E049DDDF814B0DDF866
:101A7000249013701B0700F19E827B7842F2C8020B
:101A8000C4F20702002140F2000A18072163A16393
:101A9000C1F6FF7A137000F17182BB7842F2CC027A
:101AA0000021C4F207022165A16540F2000A19076E
:101AB0001370C1F6FF7A00F1448242F2D002FB7843
:101AC000C4F20702002140F200072167A1671370EA
:101AD0001A07C1F6FF7700F114822B7804931A4697
:101AE00082F0010200230392C4F89030C4F89830C9
:101AF0000021049F059108468C460A4641F61803CA
:101B0000C1F6FF73002F1F78029747F0020E04EB17
:101B1000CE0A08BF4FF08808CAF8042018BF4FF05B
:101B2000C8083A4648EA000041F2AC7A40F20008A0
:101B300082F0010244F83E009DF80C702F7041F6CF
:101B40001800C1F6FF78C1F6FF7A1A70C1F6FF706F
:101B5000002940F06381BCF1400F24D142F0020221
:101B600004EBC204059F6760039C40F20000C1F6CD
:101B7000FF704FEA014E002C40F071819DF810403B
:101B80002C704EF0880E9DF8084040F832E00F446B
:101B90001C703C46402906D1002141F25873C1F621
:101BA000FF7334601980019A0123137045E541F6F3
:101BB0002803C1F6FF731A5D022A00F0DD80FFF4EE
:101BC000E0AC032A40F0C18001221A55D9E49B8879
:101BD000ABB941F69C33C1F6FF730D7848781D70A0
:101BE00058708D78C8789D70D87018680D791D71FF
:101BF00086284D7989795D71997100F0F58041F6FB
:101C0000180341F2AC75C1F6FF73C1F6FF75197880
:101C1000287881F00106002841F002011E700CBFF7
:101C20008823C82344F8313004EBC10180F001005F
:101C3000002328704B60FBE440F20232934240F0F4
:101C4000DA80BB8803F07F0341F61002042BC1F653
:101C5000FF7200F2DC805188002940F0D8804FF4F8
:101C600003529B00C4F207021A440391137843F015
:101C700002031370012304933AE742F221229342B4
:101C800040F0C180BB88002B40F0B88041F2407129
:101C9000C1F6FF7141F6A43241F63C03C1F6FF7272
:101CA000C1F6FF730968B87811600022187001232B
:101CB000039204931CE742F2940141F61800C4F227
:101CC0000701C1F6FF70022440F200030C70C1F658
:101CD000FF73027041F25C70C1F6FF70586041F210
:101CE000B070C1F6FF70D8604FF4035C8820C0F27A
:101CF0004000C4F2070C42F2880E186098601A6126
:101D00009A61C4F2070E0D234FF4025742F298066F
:101D100042F28C0542F284048CF80030C4F20707CA
:101D2000FF23C4F20706C4F20705C4F207048EF8C5
:101D3000003001204FF09F0E3B7032702B7084F802
:101D400000E008700BB0BDE8F08F17F0080F0CBF73
:101D5000022203221A5514E44FF40352C4F207027C
:101D60004FF40253C4F207030D2010708021A20724
:101D700019707FF553AD44E5195502E441F61C0294
:101D8000C1F6FF720023137053700221F888884255
:101D900080F0B58141F61803C1F6FF734028197829
:101DA000029141F0020E04EBCE01844628BF4FF0B1
:101DB000400C02EB0C074A60002203920122CCEB9C
:101DC0000001049205974FEA0C404FF0C808029AB0
:101DD000A8E641F62403C1F6FF7341F61C02C1F6E2
:101DE000FF721B781370D1E741F2AD73C1F6FF7338
:101DF0000F21197003E7B3F5A06F08D100230393F7
:101E00000123049374E642F221329342F6D0079AFA
:101E10000F231370019A012313700EE440297FF6FB
:101E20009DAE42F0020208EBC203059C5C60039B7E
:101E30001BB39DF810508AF80050C823C0F240032D
:101E40009DF8085005704039403448F83230A4E617
:101E5000022B7FF4F1AD4FF000033B70ECE59DF8F1
:101E600010402C709DF808401C70059B4EF0C80E69
:101E70000B441C4640F832E08CE69DF810408AF88E
:101E800000409DF8084004708823059CC0F2400380
:101E90004039403448F832307FE6BB8803F07F0396
:101EA000042BB4D87A88002AB1D14FF403529B0096
:101EB000C4F207021A4400230393137823F00203A9
:101EC00013700123049313E644F67013C0F2000369
:101ED0005A68002A9BD07888B7F804E003E00C33F6
:101EE0005A68002A93D019888142F8D159887145DF
:101EF000F5D1000A03280CBF1178198946E70221A1
:101F000044E700F0AFF9002800F0E58000F1080395
:101F10008820C7F88430C0F24000C4F8800000F088
:101F2000A1F940F20003C1F6FF73002800F0CB8056
:101F3000C8220830C0F24002C3F88C00C3F88820E1
:101F4000CBE500F08FF9002800F0D28000F1080303
:101F50008820CAF86430C0F24000206600F082F9A0
:101F600040F20003C1F6FF73002800F0BA80C822D7
:101F70000830C0F24002D8669A669EE500F072F919
:101F8000002800F09A8000F108038820CAF8443045
:101F9000C0F24000206400F065F940F20003C1F691
:101FA000FF73002800F08280C8220830C0F240028F
:101FB000D8649A6471E500F055F9002870D000F1FA
:101FC000080388206362C0F24000206200F04AF9F2
:101FD00040F20003C1F6FF7300285AD0C82208302F
:101FE000C0F24002D8629A6247E5D3F89C000838F4
:101FF00000F05CF9D1E4D3F89400083800F056F909
:10200000C2E4D86D083800F051F982E4586D083800
:1020100000F04CF975E4D86C083800F047F968E432
:10202000586C083800F042F95BE4D86B083800F0CF
:102030003DF94EE4586B083800F038F941E4D86AAD
:10204000083800F033F934E4506A083800F02EF90B
:1020500027E4D86F083800F029F97AE4586F083877
:1020600000F024F96DE4D86E083800F01FF960E440
:10207000586E083800F01AF953E4D3F88C00083889
:1020800000F014F977E4D3F88400083800F00EF972
:1020900068E498F800209862531C88F80030ECE45B
:1020A00098F80030013388F800308EE798F8002067
:1020B0009864531C88F80030EFE498F8003001333E
:1020C00088F8003066E798F80020C3F88800531CB1
:1020D00088F8003001E598F80030013388F80030C6
:1020E0001BE798F800209866531C88F80030E4E459
:1020F00098F80030013388F800302EE700BE402900
:102100008C4628BF4FF0400C02EB0C0305930023D4
:1021100003930123CCEB01014FEA0C4004931F46CB
:10212000ECE400BF2DE9F04101F08AF940F2000330
:1021300048F23400C1F6FF73C4F2040000221A60B2
:102140005A609A60DA601A615A619A61DA611A62B9
:102150005A629A62DA621A635A639A63DA631A6499
:102160005A649A64DA641A655A659A65DA651A6679
:102170005A669A66DA661A675A679A67DA67C3F820
:1021800080200468C3F884204FF45841C4F2000151
:1021900044F480240460086842F29C06C4F20706F6
:1021A00040F0407042F2B00542F2B4040860C4F25C
:1021B0000705C3F30721C4F207044FF4025842F2A3
:1021C000880C42F2100E3170C4F20708C3F30741C5
:1021D000C4F2070C1B0EC4F2070E42F294074FF430
:1021E00004562970C4F207072370C4F20706FF23C0
:1021F00042F284054EF235444EF2041042F20811C8
:1022000088F80030C4F207058CF80030CEF20004E4
:102210008EF80030CEF200000123C4F207013B70BB
:10222000327070274FF4001610222B702770066052
:102230000A70BDE8F08100BF00F0B4B800F088B8C3
:1022400000F060B800F09EB800F0E8B900F0BEB948
:102250000846114600F0C4B8084600F0ABB900BF0C
:10226000704700BF72B640F61C62C1F6FF7211687B
:10227000B1FA81F30B2B16DC4FF00040D84021EA75
:10228000000110B4116062B640F2D03203EBC30318
:10229000DB00C1F6FF72D1180024D45008464C6010
:1022A0005DF8044B704762B60020704740F2D033AF
:1022B000C1F6FF7348F63962C31AC3F6E302A2FB04
:1022C00003231B090B2B12D841F61902C1F6FF722A
:1022D00012786AB972B640F61C62C1F6FF724FF00E
:1022E0000040116820FA03F31943116062B6704789
:1022F00041F62402C1F6FF721278002AEAD0FFF7F5
:102300001DB800BF38B541F63804C1F6FF74206827
:1023100078B143880288C118013393420D7A02D202
:102320004380284638BDFFF7C1FF002328462360BD
:1023300038BD41F62403C1F6FF731B782BB103208F
:10234000FEF7C6FF20600028E3D14FF0FF3038BD14
:1023500010B541F63804C1F6FF74206818B14388FF
:102360001844007A10BD41F62403C1F6FF731B78B0
:102370002BB10320FEF7ACFF20600028EFD14FF017
:10238000FF3010BD41F63802C1F6FF7241F69433BA
:10239000C1F6FF73126898881AB1138852889B1A85
:1023A0001844704741F62403C1F6FF731B78B3B19C
:1023B00010B541F63804C1F6FF74206848B1FFF744
:1023C00075FF002303202360FEF782FF30B1FFF783
:1023D0006DFF0320FEF77CFF0028F8D110BD704789
:1023E0002DE9F04F41F62D0B83B0C1F6FF7B0123A1
:1023F0008BF80030009100297CD041F63008C1F6FE
:10240000FF78044641F62407D8F80000CDF804B060
:102410000E46C1F6FF77002800F08A8041F63405A9
:10242000C1F6FF75B0F802E0CEF14002B24228BF1B
:1024300032460EEB020189B200F108034FF0000AA8
:10244000B61A418002F1FF3C734485F800A0002ACF
:1024500044D00EF108010EF10C0E251D01448644F6
:10246000A94238BF74452CBF01250025092A94BF15
:10247000002505F00105002D51D044EA0105AD0706
:102480004DD1A2F1040E4FEA9E0E0EF1010EBCF1E9
:10249000020F4FEA8E0940D955469B46A4F1040A23
:1024A00001355AF8043F41F8043BAE45F8D85B4685
:1024B0004A454B44C9EB0C0C04EB09016DD00D7877
:1024C0001D70BCF1000F26D04D785D70BCF1010F7E
:1024D00021D0897899702244418814463F2910D828
:1024E00041F62C03C1F6FF7305221A70002E92D11B
:1024F000DDF804B0009800238BF8003003B0BDE88D
:10250000F08F4023038001460420FEF781FF002066
:10251000C8F80000E4E72244DEE72146CFE7013BAC
:10252000224414F8011B03F8011F9442F9D1D3E7A8
:102530003B78A3B34BF2815941F63405C0F201094F
:10254000C1F6FF754FF0010ADDF804B008E0B9F1FB
:1025500001091BD02B78CBB900F0BAF83B7803B354
:102560000420FEF7D5FE0728F1D88BF800A0FFF76E
:1025700079FEC8F8000000287FF454AF41F62D031F
:10258000C1F6FF73B9F101091870E3D101234FF0CF
:10259000FF302B7003B0BDE8F08F0A469CE7DDF8F2
:1025A00004B000234FF0FF308BF8003003B0BDE8DB
:1025B000F08F00BF00B583B002AB012103F8010D1D
:1025C0001846FFF70DFF03B05DF804FB38B541F680
:1025D0003005C1F6FF7541F62D04C1F6FF74286879
:1025E0000123237028B1408800232370C0F14000EC
:1025F00038BD41F62403C1F6FF731B7813B90020E0
:10260000207038BD0420FEF783FE0728F7D8FFF7B7
:1026100029FE28600028E6D1F1E700BFF8B541F6B1
:102620002403C1F6FF731B78D3B141F63005C1F620
:10263000FF7541F62D04C1F6FF742E68012727703F
:102640007EB141F62C03C1F6FF73002772881F701C
:10265000314632800420FEF7DBFE2F60002323701A
:10266000F8BDFFF7FFFD41F62C03C1F6FF7328B15B
:10267000014604201E70FEF7CBFEEFE71F70EDE76A
:1026800038B541F62D03C1F6FF731B78A3B941F6A7
:102690003004C1F6FF74216879B103F0FF054B885F
:1026A0000B800420FEF7B4FE256038BD41F62C03F4
:1026B000C1F6FF7301221A7038BDFFF7D3FD002861
:1026C000F4D00146BDE838400420FEF7A1BE00BFAB
:1026D00038B541F63D04C1F6FF74237803B138BD27
:1026E00001232370FFF74EFE002849D100F0E4FAE1
:1026F000002842D100F08EFB00283BD100F038FCCE
:10270000002834D100F0CCFC70BB00F061FD40BB70
:1027100000F0F6FD10BB00232370EFF30583002BC0
:10272000DDD1EFF3108172B641F65003C1F6FF73AD
:10273000186840B341F65404C1F6FF74227812BB06
:1027400045691D60012323700DB3AA6101B962B60A
:1027500000254577836898472570C0E700F0C6F9E3
:10276000D9E700F0C1F9D3E700F0BCF9CDE700F0FC
:10277000B7F9C7E700F0B2F9C0E700F0ADF9B9E783
:10278000FFF76EFDB2E70029A9D162B638BD41F668
:102790004C03C1F6FF731D600029D9D1D7E700BFF4
:1027A00010B4047F4160022C0346C26010D0EFF3E6
:1027B000108172B6427F32B9007F01280CD0032805
:1027C0001AD001225A7701B962B65DF8044B7047FE
:1027D00083685DF8044B184741F65000C1F6FF705E
:1027E000046804B341F64C00C1F6FF705A610268F8
:1027F0009A6103605361E4E741F64000C1F6FF705F
:102800000468CCB141F64400C1F6FF705A61026819
:102810009A61036053614EF60452CEF200024FF00B
:1028200080501060CDE741F64C02C1F6FF725C614A
:102830009C6103601360C4E741F64402C1F6FF7275
:102840005C619C6103601360E5E700BF70B5EFF366
:10285000108272B641F64004C1F6FF74206898B148
:1028600041F64406C1F6FF7600254369236073B143
:102870009D6102B962B6457783689847EFF310828D
:1028800072B620680028F0D102B962B670BD33601C
:10289000EFE700BF2DE9F84341F64806C1F6FF76A1
:1028A0003468002C38D02368002B33D142F2A17950
:1028B00041F640074EF604581D46C0F20009C1F625
:1028C000FF77CEF20008A36803B1DD6020693360B2
:1028D000036825751B684B4570D1037F4560022B4B
:1028E000C4606FD0EFF3108272B6437F43B9017FAB
:1028F000012900F09680032900F0A6800123437788
:1029000002B962B66368002B42D1346824B12368EF
:10291000002BD8D0013B2360EFF3108272B641F652
:102920005803C1F6FF7300211868196002B962B636
:10293000002800F0C1804FF000083568C4464FF011
:10294000020E0EE0CB1A8560C0F80CC001462B6069
:10295000E8604FF0010880F814E00D463846002F7B
:1029600054D08768002D56D0036829688B42E9D37C
:102970002C4603E011688B42144638D3A2685B1AD8
:102980000360002AF6D18260C4602946A060E2E7B5
:102990003068236041F64802C1F6FF72002872D009
:1029A00001688B4211D2CB1AA060E5600360C4605D
:1029B00014602046022323750446A8E7224600211E
:1029C00098479FE7836898479CE7864603E011682D
:1029D0008B42964648D3DEF808205B1A2360002A13
:1029E000F5D1A260C4F80CE0CEF80840E2E7D26866
:1029F000C2608460E060C268CB1A294690600D46D0
:102A0000236080F814E03846002FAAD1B8F1000FF7
:102A100054D1BDE8F8838560C56001464FF00108D8
:102A200099E741F65001C1F6FF71D1F800E0BEF11F
:102A3000000F2DD041F64C01C1F6FF7143610B68C8
:102A400083610860586159E7396861B341F6440110
:102A5000C1F6FF7143610B688361086058614FF0F4
:102A60008053C8F8003049E7D268E260C4F808E053
:102A7000CEF80C40E268CB1A02219460CEF8003008
:102A80002175044643E7A060E0601460204691E7AA
:102A900041F64C03C1F6FF73C0F814E0C0F818E02B
:102AA000086018602AE741F64403C1F6FF734161EC
:102AB000816138601860D2E7BDE8F8833160BDE815
:102AC000F88300BF41F24073C1F6FF731A68013208
:102AD0001A60FFF7DFBE00BF704700BF704700BF3E
:102AE000704700BF704700BF704700BF704700BF0E
:102AF00030B44FF4804144F20102C4F20701C4F241
:102B0000070240F620636024E120C1F6FF730C70D9
:102B100010701B784BF20805082B4BF20C04294669
:102B200054D00A2B62D00C2B2346C4F20305C4F206
:102B30000304C4F20B01C4F20B030CBF35205D206B
:102B400012222860226008601A6041F65D03C1F617
:102B5000FF734BF220011B783BB30B46C4F20B030F
:102B6000C4F2030101220A601A6040F62163C1F633
:102B7000FF734BF224011B78012B4BD9042B1CD97A
:102B8000082B3ED9102B0B46C4F20B03C4F20301F1
:102B900094BF862287220A601A6041F65C03C1F660
:102BA000FF7301221A7030BC70470A46C4F20B0250
:102BB000C4F203010B601360D7E70B46C4F20B03AA
:102BC000C4F2030184220A601A60E6E72346C4F2D5
:102BD0000305C4F20304C4F20B01C4F20B03212069
:102BE00013222860226008601A60AEE72346C4F210
:102BF0000305C4F20304C4F20B01C4F20B03392031
:102C0000EEE70B46C4F20B03C4F2030185220A600F
:102C10001A60C2E70B46C4F20B03C4F20301802220
:102C20000A601A60B9E700BF48F22C02C4F204023D
:102C300041F65D031168C1F6FF7341F480511160E4
:102C40001B7873B94CF22103C4F20C03C0221A7032
:102C50004FF44043C4F20C0380F30C0000B2188020
:102C600070474CF22103C4F20C0380221A70EFE784
:102C700048F22C02C4F2040241F65D031168C1F669
:102C8000FF7341F4005111601B7873B94DF22103B9
:102C9000C4F20C03C0221A704FF45043C4F20C0368
:102CA00080F30C0000B2188070474DF22103C4F28B
:102CB0000C0380221A70EFE741F6E80241F6650343
:102CC000C1F6FF72C1F6FF7310781B78C0B2DBB299
:102CD000984238BF4030C01A704700BFF0B44FF47C
:102CE0002043C4F206031A7912F0300F38D072B6BE
:102CF000997D01F0FF02002958D062B641F6E8073D
:102D000041F66501C1F6FF77C1F6FF713C780D7899
:102D100041F6A8061846E4B2EDB2C1F6FF76631C90
:102D2000402BC17928BF0023AB4202F1FF32C9B268
:102D30001CBFF1541C4612F0FF02F0D141F66002B4
:102D4000C1F6FF72E3B212683B704AB1AC4236BFC3
:102D5000C5F14005641B6419272CC4BF01231370FF
:102D60004FF42042C4F20602D178C9B20D0622D433
:102D70004A0619D54FF42043C4F206031B795B06BB
:102D800012D541F6EC02C1F6FF7241F66403C1F6BA
:102D9000FF7312680021197002B111704FF42043C3
:102DA000C4F206033C22DA70F0BC70474022D979A5
:102DB0005A7462B6D4E713791C06D9D541F6F003EC
:102DC00041F6E906C1F6FF73C1F6FF761C78337849
:102DD000E4B2DBB29C4211D041F66805C1F6FF7542
:102DE00001E0A3420AD00133402B28BF0023107911
:102DF000E85CC0B2D071107D0728F2D94FF42042B0
:102E0000DBB2C4F2060233701379180644BF7C2388
:102E1000D370ADE741F6641241F6F903C1F6FF72D3
:102E2000C1F6FF7310781B78C0B2DBB2984238BF8E
:102E30004030C01A704700BFF0B44FF43043C4F2C2
:102E400006031A7912F0300F38D072B6997D01F06E
:102E5000FF02002958D062B641F6641741F6F90125
:102E6000C1F6FF77C1F6FF713C780D7841F6241664
:102E70001846E4B2EDB2C1F6FF76631C402BC1796F
:102E800028BF0023AB4202F1FF32C9B21CBFF1548C
:102E90001C4612F0FF02F0D141F6F402C1F6FF72B7
:102EA000E3B212683B704AB1AC4236BFC5F140058F
:102EB000641B6419272CC4BF012313704FF43042E4
:102EC000C4F20602D178C9B20D0622D44A0619D539
:102ED0004FF43043C4F206031B795B0612D541F66A
:102EE0006812C1F6FF7241F6F803C1F6FF7312686B
:102EF0000021197002B111704FF43043C4F206037F
:102F00003C22DA70F0BC70474022D9795A7462B61C
:102F1000D4E713791C06D9D541F66C1341F6651632
:102F2000C1F6FF73C1F6FF761C783378E4B2DBB2EA
:102F30009C4211D041F6FC05C1F6FF7501E0A342A9
:102F40000AD00133282B28BF00231079E85CC0B2D7
:102F5000D071107D0728F2D94FF43042DBB2C4F2B1
:102F6000060233701379180644BF7C23D370ADE793
:102F700041F6E01241F67513C1F6FF72C1F6FF7318
:102F800010781B78C0B2DBB2984238BF4030C01A0C
:102F9000704700BF30B44FF44043C4F206031A79BF
:102FA00094062ED541F6E012C1F6FF72D879137857
:102FB00041F67511C1F6FF7101333F2B0978C8BF87
:102FC00000238B42C0B206D041F6A014C1F6FF74B4
:102FD000D9B2E054117041F67012C1F6FF72116857
:102FE00079B141F6E112C1F6FF721278D2B2934282
:102FF00036BFC2F140029B1A9B18272BC4BF012386
:103000000B704FF44042C4F20602D378DBB21806CC
:103010001DD45A0619D54FF44043C4F206031B7958
:103020005B0612D541F6E412C1F6FF7241F6741345
:10303000C1F6FF7312680021197002B111704FF4CC
:103040004043C4F206032C22DA7030BC7047117979
:103050000906DED541F6E81141F6E110C1F6FF712F
:10306000C1F6FF700C780178C9B28C4214D04A1CAA
:10307000272A88BF002541F6781188BF2A46C1F665
:10308000FF7198BFD5B24FF440448A5CC4F2060485
:10309000D2B2E2710570BCE76C21D170B9E700BF14
:1030A00041F65C2241F6F113C1F6FF72C1F6FF73DF
:1030B00010781B78C0B2DBB2984238BF4030C01ADB
:1030C000704700BF30B44FF45043C4F206031A797E
:1030D00094062ED541F65C22C1F6FF72D87913789A
:1030E00041F6F111C1F6FF7101333F2B0978C8BFDA
:1030F00000238B42C0B206D041F61C24C1F6FF74F7
:10310000D9B2E054117041F6EC12C1F6FF721168A9
:1031100079B141F65D22C1F6FF721278D2B29342C4
:1031200036BFC2F140029B1A9B18272BC4BF012354
:103130000B704FF45042C4F20602D378DBB218068B
:103140001DD45A0619D54FF45043C4F206031B7917
:103150005B0612D541F66022C1F6FF7241F6F0130C
:10316000C1F6FF7312680021197002B111704FF49B
:103170005043C4F206032C22DA7030BC7047117938
:103180000906DED541F6642141F65D20C1F6FF71E6
:10319000C1F6FF700C780178C9B28C4214D04A1C79
:1031A000272A88BF002541F6F41188BF2A46C1F6B8
:1031B000FF7198BFD5B24FF450448A5CC4F2060444
:1031C000D2B2E2710570BCE76C21D170B9E700BFE3
:1031D00041F6D82241F66D23C1F6FF72C1F6FF73A6
:1031E00010781B78C0B2DBB2984238BF4030C01AAA
:1031F000704700BF30B44FF42043C4F20E031A7975
:1032000094062ED541F6D822C1F6FF72D8791378EC
:1032100041F66D21C1F6FF7101333F2B0978C8BF1C
:1032200000238B42C0B206D041F69824C1F6FF7449
:10323000D9B2E054117041F66822C1F6FF721168EC
:1032400079B141F6D922C1F6FF721278D2B2934217
:1032500036BFC2F140029B1A9B18272BC4BF012323
:103260000B704FF42042C4F20E02D378DBB2180682
:103270001DD45A0619D54FF42043C4F20E031B790E
:103280005B0612D541F6DC22C1F6FF7241F66C23D3
:10329000C1F6FF7312680021197002B111704FF46A
:1032A0002043C4F20E032C22DA7030BC704711792F
:1032B0000906DED541F6E02141F6D920C1F6FF71BD
:1032C000C1F6FF700C780178C9B28C4214D04A1C48
:1032D000272A88BF002541F6702188BF2A46C1F6FB
:1032E000FF7198BFD5B24FF420448A5CC4F20E043B
:1032F000D2B2E2710570BCE76C21D170B9E700BFB2
:1033000041F6543241F6E923C1F6FF72C1F6FF736C
:1033100010781B78C0B2DBB2984238BF4030C01A78
:10332000704700BF30B44FF48043C4F20C035A68B6
:1033300094022ED541F65432C1F6FF72D868137844
:1033400041F6E921C1F6FF7101333F2B0978C8BF6F
:1033500000238B4207D041F61434C1F6FF74C0B28B
:10336000D9B2E054117041F6E422C1F6FF7211683F
:1033700079B141F65532C1F6FF721278D2B293425A
:1033800036BFC2F140029B1A9B18272BC4BF0123F2
:103390000B704FF48043C4F20C039A68100202D5FC
:1033A0005B6819021DD4520219D54FF48043C4F250
:1033B0000C035B685B0212D541F65832C1F6FF720E
:1033C00041F6E823C1F6FF7312680021197002B1BB
:1033D00011704FF4AC73C4F2883300221A6030BC11
:1033E000704741F65C3341F65531C1F6FF73C1F6C3
:1033F000FF7118780B78DBB2984214D00133272B79
:1034000088BF002541F6EC2088BF2B46C1F6FF702F
:1034100098BFDDB24FF48044C35CC4F20C04DBB24D
:10342000E3600D70BFE74FF4AE714FF4AC73C4F2BC
:103430008831C4F28833002401200C601860B2E7A0
:1034400010B584B072B6FDF7E7FA00230421C4F288
:103450000203C4F2020100207022C4F2071080248B
:103460001A7008601A461C7013781B06FCD50C23D2
:10347000C4F202031C68FDF7EFFA62B649F27F63FB
:10348000C0F298039C429CBF04EB840464000A22AF
:10349000204601A9FDF7FCFA9DF8042040F6B06330
:1034A000C1F6FF7352B39DF805105A8061B39DF8C1
:1034B0000620998052B39DF80710DA8041B39DF839
:1034C0000820198132B39DF809105A8121B39DF863
:1034D0000A20998112B39DF80B10DA8101B39DF88F
:1034E0000C2019824AB19DF80D105A82092229B187
:1034F000162299821A7004B010BD082201325200BF
:10350000D2B21A7004B010BD0122F7E70222F5E72B
:103510000322F3E70422F1E70522EFE70622EDE7B5
:103520000722EBE70B460146184600F0EBBB00BF55
:1035300081F0004102E000BF83F0004330B54FEA64
:1035400041044FEA430594EA050F08BF90EA020FD1
:103550001FBF54EA000C55EA020C7FEA645C7FEA64
:10356000655C00F0E2804FEA5454D4EB5555B8BF87
:103570006D420CDD2C4480EA020281EA030382EAF8
:10358000000083EA010180EA020281EA0303362D8A
:1035900088BF30BD11F0004F4FEA01314FF4801C5D
:1035A0004CEA113102D0404261EB410113F0004F6F
:1035B0004FEA03334CEA133302D0524263EB430326
:1035C00094EA050F00F0A780A4F10104D5F1200EC4
:1035D0000DDB02FA0EFC22FA05F2801841F100011F
:1035E00003FA0EF2801843FA05F359410EE0A5F1F3
:1035F00020050EF1200E012A03FA0EFC28BF4CF024
:10360000020C43FA05F3C01851EBE37101F00045D9
:1036100007D54FF0000EDCF1000C7EEB00006EEBE6
:103620000101B1F5801F1BD3B1F5001F0CD3490870
:103630005FEA30004FEA3C0C04F101044FEA4452C7
:1036400012F5800F80F09A80BCF1004F08BF5FEA4E
:10365000500C50F1000041EB045141EA050130BD2E
:103660005FEA4C0C404141EB010111F4801FA4F1D1
:103670000104E9D191F0000F04BF01460020B1FA26
:1036800081F308BF2033A3F10B03B3F120020CDA5E
:103690000C3208DD02F1140CC2F10C0201FA0CF03C
:1036A00021FA02F10CE002F11402D8BFC2F1200CA1
:1036B00001FA02F120FA0CFCDCBF41EA0C01904057
:1036C000E41AA2BF01EB0451294330BD6FEA0404A0
:1036D0001F3C1CDA0C340EDC04F11404C4F120028B
:1036E00020FA04F001FA02F340EA030021FA04F39D
:1036F00045EA030130BDC4F10C04C4F1200220FAF4
:1037000002F001FA04F340EA0300294630BD21FA31
:1037100004F0294630BD94F0000F83F4801306BFF7
:1037200081F480110134013D4EE77FEA645C18BFEB
:103730007FEA655C29D094EA050F08BF90EA020F82
:1037400005D054EA000C04BF1946104630BD91EA7A
:10375000030F1EBF0021002030BD5FEA545C05D17D
:103760004000494128BF41F0004130BD14F58004BC
:103770003CBF01F5801130BD01F0004545F0FE4130
:1037800041F470014FF0000030BD7FEA645C1ABF65
:10379000194610467FEA655C1CBF0B46024650EA9C
:1037A000013406BF52EA033591EA030F41F40021C8
:1037B00030BD00BF90F0000F04BF0021704730B54E
:1037C0004FF4806404F132044FF000054FF0000123
:1037D00050E700BF90F0000F04BF0021704730B5E4
:1037E0004FF4806404F1320410F0004548BF4042B9
:1037F0004FF000013EE700BF42004FEAE2014FEA0E
:1038000031014FEA02701FBF12F07F4393F07F4FE8
:1038100081F06051704792F0000F14BF93F07F4F1A
:10382000704730B54FF4607401F0004521F000415D
:1038300020E700BF50EA010208BF704730B54FF0E3
:1038400000050AE050EA010208BF704730B511F0E8
:10385000004502D5404261EB41014FF4806404F120
:1038600032045FEA915C3FF4DCAE4FF003025FEAA2
:10387000DC0C18BF03325FEADC0C18BF033202EB2A
:10388000DC02C2F1200300FA03FC20FA02F001FA84
:1038900003FE40EA0E0021FA02F11444C1E600BF23
:1038A00070B54FF0FF0C4CF4E06C1CEA11541DBFD6
:1038B0001CEA135594EA0C0F95EA0C0F00F0DEF8A1
:1038C0002C4481EA030621EA4C5123EA4C5350EA86
:1038D000013518BF52EA033541F4801143F48013D7
:1038E00038D0A0FB02CE4FF00005E1FB02E506F068
:1038F0000042E0FB03E54FF00006E1FB03569CF0BD
:10390000000F18BF4EF0010EA4F1FF04B6F5007FC2
:1039100064F5407404D25FEA4E0E6D4146EB060634
:1039200042EAC62141EA55514FEAC52040EA5E50BD
:103930004FEACE2EB4F1FD0C88BFBCF5E06F1ED867
:10394000BEF1004F08BF5FEA500E50F1000041EB9E
:10395000045170BD06F0004646EA010140EA02004B
:1039600081EA0301B4EB5C04C2BFD4EB0C0541EA6D
:10397000045170BD41F480114FF0000E013C00F382
:10398000AB8014F1360FDEBF002001F0004170BDA6
:10399000C4F10004203C35DA0C341BDC04F11404BF
:1039A000C4F1200500FA05F320FA04F001FA05F24B
:1039B00040EA020001F0004221F0004110EBD37018
:1039C00021FA04F642EB06015EEA430E08BF20EA44
:1039D000D37070BDC4F10C04C4F1200500FA04F3E7
:1039E00020FA05F001FA04F240EA020001F0004179
:1039F00010EBD37041F100015EEA430E08BF20EAEC
:103A0000D37070BDC4F1200500FA05F24EEA020E33
:103A100020FA04F301FA05F243EA020321FA04F062
:103A200001F0004121FA04F220EA020000EBD37019
:103A30005EEA430E08BF20EAD37070BD94F0000F19
:103A40000FD101F00046400041EB010111F4801F4D
:103A500008BF013CF7D041EA060195F0000F18BFFE
:103A6000704703F00046520043EB030313F4801F3A
:103A700008BF013DF7D043EA0603704794EA0C0FF4
:103A80000CEA135518BF95EA0C0F0CD050EA41060A
:103A900018BF52EA4306D1D181EA030101F0004187
:103AA0004FF0000070BD50EA410606BF10461946AF
:103AB00052EA430619D094EA0C0F02D150EA0136BB
:103AC00013D195EA0C0F05D152EA03361CBF1046FC
:103AD00019460AD181EA030101F0004141F0FE419B
:103AE00041F470014FF0000070BD41F0FE4141F41F
:103AF000780170BD70B54FF0FF0C4CF4E06C1CEA1F
:103B000011541DBF1CEA135594EA0C0F95EA0C0FD3
:103B100000F0A7F8A4EB050481EA030E52EA03358E
:103B20004FEA013100F088804FEA03334FF08055AF
:103B300045EA131343EA12634FEA022245EA1115DC
:103B400045EA10654FEA00260EF000419D4208BF8D
:103B5000964244F1FD0404F5407402D25B084FEA3A
:103B60003202B61A65EB03055B084FEA32024FF4E6
:103B700080104FF4002CB6EB020E75EB030E22BF43
:103B8000B61A754640EA0C005B084FEA3202B6EB03
:103B9000020E75EB030E22BFB61A754640EA5C00B2
:103BA0005B084FEA3202B6EB020E75EB030E22BF42
:103BB000B61A754640EA9C005B084FEA3202B6EB43
:103BC000020E75EB030E22BFB61A754640EADC0002
:103BD00055EA060E18D04FEA051545EA16754FEA64
:103BE00006164FEAC30343EA52734FEAC2025FEA82
:103BF0001C1CC0D111F4801F0BD141EA00014FF011
:103C000000004FF0004CB6E711F4801F04BF0143E1
:103C10000020B4F1FD0C88BFBCF5E06F3FF6AFAEFD
:103C2000B5EB030C04BFB6EB020C5FEA500C50F18D
:103C3000000041EB045170BD0EF0004E4EEA113110
:103C400014EB5C04C2BFD4EB0C0541EA045170BD17
:103C500041F480114FF0000E013C90E645EA060E5B
:103C60008DE60CEA135594EA0C0F08BF95EA0C0F89
:103C70003FF43BAF94EA0C0F0AD150EA01347FF4D1
:103C800034AF95EA0C0F7FF425AF104619462CE7A8
:103C900095EA0C0F06D152EA03353FF4FDAE10460B
:103CA000194622E750EA410618BF52EA43067FF45C
:103CB000C5AE50EA41047FF40DAF52EA43057FF4EC
:103CC000EBAE12E74A0011D212F5001211D20DD557
:103CD0006FF47873B3EB62520ED44FEAC12343F012
:103CE000004343EA505323FA02F070474FF00000BC
:103CF000704750EA013002D14FF0FF3070474FF06B
:103D00000000704713460A460146022000F004BB3B
:103D1000014B1868704700BFF012FF1F70B50F4EBF
:103D20000F4D761BB61018BF002405D0013455F88E
:103D3000043B9847A642F9D10A4E0B4D761B00F082
:103D400043FEB61018BF002406D0013455F8043BDA
:103D50009847A642F9D170BD70BD00BF084A000067
:103D6000084A0000144A0000084A0000024B0146BD
:103D7000186800F003B800BFF012FF1F2DE9F04FE4
:103D800001F10B05162D83B0064640F29F8035F0F9
:103D9000070500F1BF80A94200F2BC8000F0A6FA3E
:103DA000B5F5FC7FC0F09C826B0A00F0BA80042B52
:103DB00000F28381A80900F1390E4FEA4E03383032
:103DC000C44F07EB8303A3F108015C68A14207D14C
:103DD000ACE0002A80F2AC80E468A14200F0A6804A
:103DE000636823F003035A1B0F2AF2DDB9493C69CB
:103DF00001F1080E744500F0B381636823F00303FA
:103E00005A1B0F2A00F39981002AC1F814E0C1F867
:103E100010E080F29E80B3F5007F80F06781DB08C0
:103E200003F1010C01229B1002FA03F34A6851F8D6
:103E30003C80C4F8088001EBCC091A43A9F10803BF
:103E4000E3604A6041F83C40C8F80C40831001240C
:103E50009C40944200F28A80144206D120F0030074
:103E60006400144200F10400FAD007EBC009CC460C
:103E70008046DCF80C108C4507D173E1002A80F2F3
:103E80008181C9688C4500F06D814B6823F0030384
:103E90005A1B0F2AF2DD0C46D1F80CC054F8088FDB
:103EA0004B1945F001054D6042F00101C8F80CC006
:103EB0003046CCF808807B613B61C3F80CE0C3F866
:103EC00008E059609A5000F013FA1FE0102921D839
:103ED00000F00CFA1025062302207E4F07EB830327
:103EE000A3F108025C68944200F045816368E168D0
:103EF000A56823F00303234430465A68E96042F082
:103F000001028D605A6000F0F3F90834204603B0D6
:103F1000BDE8F08F00240C232046336003B0BDE8D9
:103F2000F08F80234FF0400E3F2049E770465DE759
:103F30002344E1685A68A56842F00102E96030460E
:103F40008D605A6000F0D4F90834204603B0BDE813
:103F5000F08F234430465A6842F001025A6000F064
:103F6000C7F90834204603B0BDE8F08FBC68636829
:103F700023F00308A84504D3C5EB08030F2B00F377
:103F80008C80554BDFF860911A68D9F80030013306
:103F90002A4404EB080A00F0608102F580520F32D7
:103FA00022F47F6222F00F0211463046019200F0A7
:103FB000A1F9B0F1FF3F8346019A00F05881824594
:103FC00000F2FC80454B1968DA451144196000F095
:103FD0005381D9F80000DFF810E101301BBFCAEBB4
:103FE0000B0A5144CEF800B019601BF0070100F035
:103FF0001781C1F10800C1F58051834408315A444A
:10400000C2F30B02C2EB010949463046019300F0AE
:1040100071F9431C019B00F03F81CBEB00024A4445
:1040200042F001021968C7F808B04944BC42CBF815
:1040300004201960DFF8A49016D0B8F10F0F40F2F9
:10404000FD806268A8F10C0323F00703E01802F07A
:1040500001024FF0050E1A430F2B6260C0F804E016
:10406000C0F808E000F21C811D4BBC681A68914240
:1040700088BF19601B4B1A689142626888BF19603B
:1040800022F003029542A2EB050301D80F2B04DCBA
:10409000304600F02DF9002438E7621943F001039F
:1040A00045F0010565603046BA60536000F020F9C4
:1040B0000834204603B0BDE8F08F142B71D9542B7F
:1040C00000F2A480280B00F16F0E4FEA4E036E3011
:1040D00076E600BFF412FF1F681BFF1F6C1BFF1F5B
:1040E000641BFF1F601BFF1F0017FF1F5A0A042AD3
:1040F0005ED9142A00F2B38002F15C0149005B3200
:1041000007EB810C57F82110DFF8DC81ACF1080CCB
:104110008C4500F088804A6822F00302934202D264
:1041200089688C45F7D1D1F80CC07A68C4F80CC006
:10413000A160CCF80840CC6088E6631942F0010722
:1041400045F00105656030464B610B61C3F80CE03A
:10415000C3F808E05F609A50083400F0C9F8D5E66B
:104160004A6873E608F1010818F0030F0CF1080C17
:104170007FF47FAE30E0DC68A34208BF02303FF43A
:1041800035AEB3E60B440C465A68C96854F8085F6C
:1041900042F001025A603046E9608D6000F0A8F8F4
:1041A000B4E603F15C0E03F15B004FEA4E0307E651
:1041B0009A0902F1390149003832A1E7BC424A4B61
:1041C0003FF400AF9C68626822F003025AE759F896
:1041D0000839994540F0828010F0030F00F1FF305C
:1041E000F5D17B6823EA04037B6064009C423FF6C0
:1041F000BDAE002C3FF4BAAE1C4240467FF435AE53
:1042000064001C4200F10400FAD02EE6B3F5AA7F48
:1042100018D8E80B00F1780E4FEA4E037730CFE55F
:104220004FF48051EBE60121D8F80430921001FAE6
:1042300002F21A43C8F80420614677E70123CBF85D
:10424000043025E740F25452934220D8A80C00F1E4
:104250007D0E4FEA4E037C30B2E51032A4E6542ABC
:1042600026D81A0B02F16F0149006E3248E7BC688C
:10427000626822F0030205E7CAF30B0000287FF40E
:10428000A8AE4244BB6842F001025A60ECE6FE234D
:104290004FF07F0E7E2093E501224FF00009C1E62A
:1042A00004F10801304600F0FBF8D9F80010DBE615
:1042B000B2F5AA7F05D8DA0B02F17801490077320E
:1042C0001EE740F254518A4205D89A0C02F17D0152
:1042D00049007C3214E7FE217E2211E77B6884E7E7
:1042E000E808431C5B00F8E5F412FF1F704700BFAD
:1042F000704700BF38B5074C0023054608462360C9
:10430000FCF772FB431C00D038BD2368002BFBD0A8
:104310002B6038BDA81BFF1F2DE9F047254C2568F1
:10432000D5F848410646884692469946C4B3606827
:104330001F2817DC431C76B104EB80050122C5F869
:1043400088A0D4F8881182401143022EC4F8881145
:10435000C5F808911ED00230636044F82080002028
:10436000BDE8F087144B03B34FF4C870FFF7FEFCB1
:104370000446D0B1D5F84831002780E88800C5F858
:10438000484138460123C4F88871C4F88C71002E66
:10439000E1D0D1E7D4F88C110A43C4F88C21DAE7D4
:1043A00005F5A674C5F84841C1E74FF0FF30BDE8F8
:1043B000F08700BFC44900006D3D0000024B13B1FF
:1043C000024800F005B8704700000000DD4300001F
:1043D000002301461A461846FFF79EBF38B5074D21
:1043E000074C2C1BA41005D0013C55F8043D984700
:1043F000002CF9D1BDE8384000F00CBB00000000F3
:1044000000000000F8B5234F0C460646FFF76EFF8C
:10441000BB685D6825F00305291B01F6EF7121F4E7
:104420007F6121F00F01A1F58054B4F5805F07DBB7
:1044300000213046FFF75EFFBB682B44984204D052
:104440003046FFF755FF0020F8BD61423046FFF7C8
:1044500051FF01300DD0104BBA6819682D1B45F083
:1044600001053046091B55601960FFF741FF012027
:10447000F8BD00213046FFF73DFFBA68831A0F2BC5
:10448000DEDD064C0449246843F00103001B536041
:104490000860D5E7F412FF1F6C1BFF1F0017FF1FFA
:1044A000002945D02DE9F0410D468046FFF71EFF5B
:1044B00055F8047C6A4927F00103A5F10804E218C5
:1044C0008E685068B24220F0030062D0FE07506050
:1044D0000BD455F8087CE41B01F1080EA56875455E
:1044E0003B446FD0E768EF60BD6015186D68ED075D
:1044F00042D543F001026260E350B3F5007F18D269
:10450000DB085A1C4D6851F83270A76001209B10DF
:1045100000FA03F301EBC2001D430838E0604D6070
:1045200041F83240FC604046BDE8F041FFF7E0BE94
:1045300070475A0A042A53D89A0902F139077F00B2
:1045400002F1380501EB870051F82720444908386B
:1045500090424DD0516821F003018B4202D2926803
:104560009042F7D1D068E060A2608460D460404699
:10457000BDE8F041FFF7BCBE95683A4FBD42034429
:104580003FD0D068E86043F0010285606260E3508C
:10459000B3E7FF07034407D455F8082CA41A1344C3
:1045A000A068E268C26090602F4A126843F0010080
:1045B000934260608C60B6D32C4B40461968FFF77D
:1045C00021FFB0E711184968C90744D49168D2683F
:1045D000CA60034443F0010091606060E350A2E7C9
:1045E000142A17D802F15C077F0002F15B05A9E7E6
:1045F000AA104B68012505FA02F213434B600246EC
:10460000B1E743F001024C610C61E560A5606260B6
:10461000E35088E7542A06D81A0B02F16F077F008F
:1046200002F16E058EE7B2F5AA7F06D8DA0B02F129
:1046300078077F0002F1770584E740F25450824208
:1046400006D89A0C02F17D077F0002F17C0579E71C
:10465000FE277E2576E743F001026260E35062E7C1
:10466000F412FF1FFC12FF1FFC16FF1F681BFF1F29
:104670000F1617090A0D0B0C2D2D2D2D2D2D2D2D5F
:104680002D2D2D2D2D2D2D2D2D2D2D2D2D2D2D2D5A
:104690002D2D2D2D2D2D2D2D2D2D2D2D2D2D2D2D4A
:1046A0002D2D2D2D2D2D2D2D2D2D2D2D2D2D2D2D3A
:1046B0002D2D2D2D2D0000002D2D2D2D2D2D2D2DB1
:1046C0002D2D2D2D2D2D2D2D2D2D2D2D2D2D202034
:1046D0005465656E7379205472696767657220202E
:1046E0002D2D2D2D2D2D2D2D2D2D2D2D2D2D2D2DFA
:1046F0002D2D2D2D2D0000002D2D2D2D2D2D2D2D71
:104700002D2D2D2D2D2D2D2D2D2D2D2D2020566592
:10471000722E322E31207C204A52207C20323031C1
:104720003920202D2D2D2D2D2D2D2D2D2D2D2D2DC7
:104730002D2D2D2D2D2D0000020E07080614150518
:104740000D0AFFFF4008FE4340A004404408FE431A
:1047500044A004400018FE4300C004403000FE4363
:10476000309004403400FE43349004401C18FE4353
:104770001CC004401018FE4310C004400818FE433B
:1047800008C004400C18FE430CC004400C10FE434B
:104790000CB004401010FE4310B004401810FE434B
:1047A00018B004401C10FE431CB004401410FE431B
:1047B00014B004400418FE4304C004400010FE433B
:1047C00000B004400008FE4300A004400408FE437B
:1047D00004A004400C08FE430CA004400808FE435B
:1047E00008A004401418FE4314C004401818FE43E7
:1047F00018C004400410FE4304B004400810FE43F7
:1048000008B004406820FE4368D004401400FE4312
:10481000149004403800FE43389004403C00FE43AE
:104820003C9004404000FE43409004404808FE4352
:1048300048A004404C08FE434CA004402808FE4316
:1048400028A004402C08FE432CA004406020FE4316
:1048500060D004406420FE4364D004402010FE4336
:1048600020B004402410FE4324B004402810FE432E
:1048700028B004402C10FE432CB004404400FE43FA
:10488000449004407000FE43709004407400FE4366
:10489000749004406800FE43689004405008FE4352
:1048A00050A004405808FE4358A004405C08FE4352
:1048B0005CA004405408FE4354A004402018FE436A
:1048C00020C004402418FE4324C004401008FE43C6
:1048D00010A004401408FE4314A004403818FE43FE
:1048E00038C004403418FE4334C004403018FE433E
:1048F00030C004403C18FE433CC004402C18FE432A
:104900002CC004402820FE4328D004402C20FE4325
:104910002CD004400020FE4300D004400420FE437D
:1049200004D004400820FE4308D004400C20FE437D
:104930000CD004401020FE4310D004401420FE434D
:1049400014D00440000000000000000059220000C4
:10495000512200004D2200004922000045220000A3
:10496000412200003D2200003922000000151915E7
:1049700000010000240EFF1F1200000000020000D2
:10498000500EFF1F4300000000030000AC0EFF1F8D
:104990000000000001030904380EFF1F00000000A2
:1049A00002030904940EFF1F000000000303090422
:1049B000B00EFF1F0000000000000000000000001B
:1049C00000000000C80EFF1FF8B500BFF8BC08BC0F
:1049D0009E467047FFFFFFFF40F2597CC1F6FF7C07
:1049E000604740F2317CC1F6FF7C604740F62D2CD9
:1049F000C1F6FF7C604700000000000000000000DE
:104A00000000000000000000BD430000350400006D
:044A10007D0600001F
:044A1400F8B500BF32
:084A18000CEBFF7F0100000020
:104A200038B5054600F033FB01280ADD00F03EFBF7
:104A3000044600F03BFB04EB002080B2A86001209C
:104A400038BD002038BD00BF2DE9F04F44F2387466
:104A5000C0F200048FB00646651D14F8010B00215A
:104A600000F029FBA542F8D10021152000F023FB1E
:104A70000023337100F00BFB0328FBDD00F016FB75
:104A8000804600F013FB08EB002800F00FFB08EB5A
:104A9000004800F00BFB08EB006800F0F8FA032870
:104AA000FBDD00F003FB044600F000FB04EB0024F8
:104AB00000F0FCFA04EB004400F0F8FA04EB0064A8
:104AC00000F0E5FA0328FBDD00F0F0FA814600F083
:104AD000EDFA09EB002900F0E9FA09EB004900F0D2
:104AE000E5FA09EB006900F0D2FA0328FBDD00F0DB
:104AF000DDFA054600F0DAFA05EB002500F0D6FAFB
:104B000005EB004500F0D2FA05EB0063049300F0DA
:104B1000BEFA0328FBDD00F0C9FA054600F0C6FA2C
:104B200005EB002500F0C2FA05EB004500F0BEFAE7
:104B300005EB0063039300F0AAFA0328FBDD00F005
:104B4000B5FA054600F0B2FA05EB002500F0AEFA22
:104B500005EB004500F0AAFA08EB880805EB0063B6
:104B60004FF2500BC4F20F0B04EB84044FF280029F
:104B70004FF2C00102934FEA08130027584641F252
:104B8000407A0593C4F20F022301C4F20F01D6F854
:104B900000E00893CB463B46B84607973D46C1F632
:104BA000FF7A019206918146D9F8004084F0010411
:104BB0009C422ED0002B14BF002304F0010343B30A
:104BC000059B0BB1013BFDD180234FF0010CB5FBE0
:104BD000FBF00BFB1050337186F805C000287DD127
:104BE000049A0320C0239542707133714FF0070C73
:104BF0004FF0D00079D0039A95425BD3019A0823F5
:104C00001360069A1360029B9D4262D0013508F141
:104C10000108DAF800300B930B9BDB1B41F240706C
:104C20007345C1F6FF7001D22346BDE703680C93BC
:104C30000C9F00F02CFA01285CDD00F037FA099097
:104C400000F034FA099B03EB002080B24528B060E5
:104C500050D10024632334750DA802218DF834301F
:104C60008DF8354000F01DFA4FEA18224FEA18433C
:104C70008DF834800DA84FEA186804218DF835208E
:104C80008DF836308DF8378000F00BFA079F8DF8DD
:104C900034703A0C3B0E0DA83D0A04218DF83550B6
:104CA0008DF836208DF8373000F0FBF9B4600FB086
:104CB000BDE8F08F019A1360069A73791360089B20
:104CC0000BB1013BFDD1019A00231360029B9D4271
:104CD0009CD1079B01330793002598E7049A9542DE
:104CE0004FF0050C4FF0900085D1307186F805C06B
:104CF000034680E7D6F800E0234655E741F2040278
:104D000041F22073CEF20002C1F6FF7310681968F9
:104D100013681B1A9942FBD8704700BF2DE9F04F6A
:104D200044F23874C0F200048DB00646651D14F8D4
:104D3000010B002100F0BFF9AC42F8D10021152091
:104D400000F0B9F900F0A3F90328FBDD00F0AEF99B
:104D5000044600F0ABF904EB002400F0A7F904EBE3
:104D6000004400F0A3F904EB0063079300F08FF90F
:104D70000328FBDD00F09AF9044600F097F904EBF4
:104D8000002400F093F904EB004400F08FF904EBE9
:104D90000063039300F07BF90328FBDD00F086F944
:104DA000044600F083F904EB002400F07FF904EBE3
:104DB000004400F07BF904EB006400F068F903287C
:104DC000FBDD00F073F9834600F070F90BEB002B6C
:104DD00000F06CF90BEB004B00F068F90BEB006B8B
:104DE00000F055F90328FBDD00F060F9074600F0FC
:104DF0005DF907EB002700F059F907EB004700F0D9
:104E000055F907EE904A47F25F03C3F2890307EEB4
:104E1000103AF8EE677AF7EE006A67EE877A4EF698
:104E2000FC5286EEA77ACEF200024FF4805311684E
:104E3000CEF2000341F0807111601A684FF4A04176
:104E400042F001021A60C4F206010224FCEEC77AA5
:104E500007EB006717EE908A4FEA5803812B019306
:104E60000C7040F20081A3F1820000F006F94AF6CE
:104E7000AB224AF6AA23CAF6AA22C4F2100300F013
:104E800001F900230022C3F6E07300F0F1F800F00E
:104E900003F941F22073C1F6FF734FF47A72186080
:104EA000019B02FB07F2934244F6D353C1F2620323
:104EB000A3FB08384FF280054FF2C003C4F20F0382
:104EC000C4F20F0502924FF000044FF0500238BFB9
:104ED0004FEAD8182C601A60079B36BFC8EB07074B
:104EE000C7EBD818C7EB080883B10097079FA24605
:104EF0004FF00409C5F80090FFF700FF0134C5F832
:104F000000A0FFF7FBFEBC42F4D1009F07EB870730
:104F10003A0108EB880841F240730BEB8B0B4FF022
:104F2000000A4FF280050592C1F6FF734FEA08129E
:104F30004FEA0B1B0692CDF800A00493C4F20F05B4
:104F40000124B146019B029A93424FF004032B6067
:104F500079D3059B0BB1013BFDD106232B60069B4A
:104F60000BB1013BFDD102232B60FFF7C7FE64B3F9
:104F7000039B079A9F1A013F0DD000244FF00608AB
:104F80000226C5F80080FFF7B9FE01342E60FFF756
:104F9000B5FEA742F5D100232B600AF1010ABBF14F
:104FA000000F02D05B46013BFDD1049B009A1B68B9
:104FB0000993099BD9F800109B1A8B4241F2407269
:104FC000C1F6FF7203D20024BCE7039FD3E7136846
:104FD0000A930A9B009300F05AF80128F3DD00F0D1
:104FE00065F8044600F062F804EB002083B2432B1E
:104FF000C9F80830E7D14FF2C003C4F20F03002410
:105000001C600BA8632389F8144002218DF82C3012
:105010008DF82D404FEA1A2500F043F84FEA1A4266
:105020004FEA1A630BA804218DF82CA08DF82D509F
:105030008DF82E208DF82F3000F033F8C9F8084095
:105040000DB0BDE8F08FFFF759FE00232B60059BE4
:105050000BB1013BFDD102232B60069B002B86D0B8
:10506000013BFDD183E7002013E700BF00000000F3
:1050700043F23D5CC0F2000C604743F2B57CC0F2E5
:10508000000C604743F6F52CC0F2000C604742F27A
:10509000853CC0F2000C604743F6C54CC0F2000CE2
:1050A000604742F2E13CC0F2000C604742F2053C2E
:1050B000C0F2000C604740F63D6CC0F2000C604747
:1050C00000000000000000000000000000000000E0
:1050D00000000000000000000000000000000000D0
:1050E00000000000000000000000000000000000C0
:1050F00000000000AC1BFF1F080000004C4900002E
:1051000000000000E803000000000000FFFFFFFFB8
:105110000A0400001201100102000040C0168304BE
:1051200077020102030100001803540065006500C6
:105130006E00730079006400750069006E006F00F6
:1051400009024300020100C032090400000102020A
:1051500001000524001001052401010104240206B8
:105160000524060001070582031000400904010020
:10517000020A000000070503024000000705840240
:105180004000000016035500530042002000530069
:1051900065007200690061006C00000004030904EE
:1051A0000C030000000000000000000000000000F0
:1051B000000000000000000000000000B411FF1F0C
:1051C0001C12FF1F8412FF1F0000000000000000DF
:1051D00000000000000000000000000000000000CF
:1051E00000000000000000000000000000000000BF
:1051F00000000000000000000000000000000000AF
:10520000000000000000000000000000000000009E
:10521000000000000000000000000000000000008E
:10522000000000000000000000000000000000007E
:10523000000000000000000000000000000000006E
:10524000000000000000000000000000000000005E
:10525000000000000000000000000000000000004E
:1052600001000000000000000E33CDAB34126DE6EB
:10527000ECDE05000B000000000000000000000054
:10528000000000000000000000000000000000001E
:10529000000000000000000000000000000000000E
:1052A00000000000000000000000000000000000FE
:1052B00000000000000000000000000000000000EE
:1055E000C80EFF1F0000000000000000F412FF1FA3
:1055F000F412FF1FFC12FF1FFC12FF1F0413FF1FFA
:105600000413FF1F0C13FF1F0C13FF1F1413FF1FA6
:105610001413FF1F1C13FF1F1C13FF1F2413FF1F56
:105620002413FF1F2C13FF1F2C13FF1F3413FF1F06
:105630003413FF1F3C13FF1F3C13FF1F4413FF1FB6
:105640004413FF1F4C13FF1F4C13FF1F5413FF1F66
:105650005413FF1F5C13FF1F5C13FF1F6413FF1F16
:105660006413FF1F6C13FF1F6C13FF1F7413FF1FC6
:105670007413FF1F7C13FF1F7C13FF1F8413FF1F76
:105680008413FF1F8C13FF1F8C13FF1F9413FF1F26
:105690009413FF1F9C13FF1F9C13FF1FA413FF1FD6
:1056A000A413FF1FAC13FF1FAC13FF1FB413FF1F86
:1056B000B413FF1FBC13FF1FBC13FF1FC413FF1F36
:1056C000C413FF1FCC13FF1FCC13FF1FD413FF1FE6
:1056D000D413FF1FDC13FF1FDC13FF1FE413FF1F96
:1056E000E413FF1FEC13FF1FEC13FF1FF413FF1F46
:1056F000F413FF1FFC13FF1FFC13FF1F0414FF1FF5
:105700000414FF1F0C14FF1F0C14FF1F1414FF1FA1
:105710001414FF1F1C14FF1F1C14FF1F2414FF1F51
:105720002414FF1F2C14FF1F2C14FF1F3414FF1F01
:105730003414FF1F3C14FF1F3C14FF1F4414FF1FB1
:105740004414FF1F4C14FF1F4C14FF1F5414FF1F61
:105750005414FF1F5C14FF1F5C14FF1F6414FF1F11
:105760006414FF1F6C14FF1F6C14FF1F7414FF1FC1
:105770007414FF1F7C14FF1F7C14FF1F8414FF1F71
:105780008414FF1F8C14FF1F8C14FF1F9414FF1F21
:105790009414FF1F9C14FF1F9C14FF1FA414FF1FD1
:1057A000A414FF1FAC14FF1FAC14FF1FB414FF1F81
:1057B000B414FF1FBC14FF1FBC14FF1FC414FF1F31
:1057C000C414FF1FCC14FF1FCC14FF1FD414FF1FE1
:1057D000D414FF1FDC14FF1FDC14FF1FE414FF1F91
:1057E000E414FF1FEC14FF1FEC14FF1FF414FF1F41
:1057F000F414FF1FFC14FF1FFC14FF1F0415FF1FF0
:105800000415FF1F0C15FF1F0C15FF1F1415FF1F9C
:105810001415FF1F1C15FF1F1C15FF1F2415FF1F4C
:105820002415FF1F2C15FF1F2C15FF1F3415FF1FFC
:105830003415FF1F3C15FF1F3C15FF1F4415FF1FAC
:105840004415FF1F4C15FF1F4C15FF1F5415FF1F5C
:105850005415FF1F5C15FF1F5C15FF1F6415FF1F0C
:105860006415FF1F6C15FF1F6C15FF1F7415FF1FBC
:105870007415FF1F7C15FF1F7C15FF1F8415FF1F6C
:105880008415FF1F8C15FF1F8C15FF1F9415FF1F1C
:105890009415FF1F9C15FF1F9C15FF1FA415FF1FCC
:1058A000A415FF1FAC15FF1FAC15FF1FB415FF1F7C
:1058B000B415FF1FBC15FF1FBC15FF1FC415FF1F2C
:1058C000C415FF1FCC15FF1FCC15FF1FD415FF1FDC
:1058D000D415FF1FDC15FF1FDC15FF1FE415FF1F8C
:1058E000E415FF1FEC15FF1FEC15FF1FF415FF1F3C
:1058F000F415FF1FFC15FF1FFC15FF1F0416FF1FEB
:105900000416FF1F0C16FF1F0C16FF1F1416FF1F97
:105910001416FF1F1C16FF1F1C16FF1F2416FF1F47
:105920002416FF1F2C16FF1F2C16FF1F3416FF1FF7
:105930003416FF1F3C16FF1F3C16FF1F4416FF1FA7
:105940004416FF1F4C16FF1F4C16FF1F5416FF1F57
:105950005416FF1F5C16FF1F5C16FF1F6416FF1F07
:105960006416FF1F6C16FF1F6C16FF1F7416FF1FB7
:105970007416FF1F7C16FF1F7C16FF1F8416FF1F67
:105980008416FF1F8C16FF1F8C16FF1F9416FF1F17
:105990009416FF1F9C16FF1F9C16FF1FA416FF1FC7
:1059A000A416FF1FAC16FF1FAC16FF1FB416FF1F77
:1059B000B416FF1FBC16FF1FBC16FF1FC416FF1F27
:1059C000C416FF1FCC16FF1FCC16FF1FD416FF1FD7
:1059D000D416FF1FDC16FF1FDC16FF1FE416FF1F87
:1059E000E416FF1FEC16FF1FEC16FF1F000002005D
:0459F000FFFFFFFFB7
:00000001FF
